{
  "_format": "hh-sol-artifact-1",
  "contractName": "SafeCity",
  "sourceName": "contracts/SafeCity.sol",
  "abi": [
    {
      "inputs": [
        {
          "internalType": "address",
          "name": "router",
          "type": "address"
        },
        {
          "internalType": "bytes32",
          "name": "_donID",
          "type": "bytes32"
        },
        {
          "internalType": "uint64",
          "name": "_subscriptionID",
          "type": "uint64"
        }
      ],
      "stateMutability": "nonpayable",
      "type": "constructor"
    },
    {
      "inputs": [],
      "name": "EmptyArgs",
      "type": "error"
    },
    {
      "inputs": [],
      "name": "EmptySource",
      "type": "error"
    },
    {
      "inputs": [],
      "name": "NoInlineSecrets",
      "type": "error"
    },
    {
      "inputs": [],
      "name": "OnlyRouterCanFulfill",
      "type": "error"
    },
    {
      "inputs": [
        {
          "internalType": "bytes32",
          "name": "requestId",
          "type": "bytes32"
        }
      ],
      "name": "UnexpectedRequestID",
      "type": "error"
    },
    {
      "anonymous": false,
      "inputs": [
        {
          "indexed": false,
          "internalType": "address",
          "name": "reviewedAddress",
          "type": "address"
        },
        {
          "indexed": false,
          "internalType": "address",
          "name": "reviewer",
          "type": "address"
        },
        {
          "indexed": false,
          "internalType": "bool",
          "name": "happy",
          "type": "bool"
        },
        {
          "indexed": false,
          "internalType": "string",
          "name": "review",
          "type": "string"
        },
        {
          "indexed": false,
          "internalType": "bytes",
          "name": "error",
          "type": "bytes"
        }
      ],
      "name": "NewReview",
      "type": "event"
    },
    {
      "anonymous": false,
      "inputs": [
        {
          "indexed": true,
          "internalType": "address",
          "name": "from",
          "type": "address"
        },
        {
          "indexed": true,
          "internalType": "address",
          "name": "to",
          "type": "address"
        }
      ],
      "name": "OwnershipTransferRequested",
      "type": "event"
    },
    {
      "anonymous": false,
      "inputs": [
        {
          "indexed": true,
          "internalType": "address",
          "name": "from",
          "type": "address"
        },
        {
          "indexed": true,
          "internalType": "address",
          "name": "to",
          "type": "address"
        }
      ],
      "name": "OwnershipTransferred",
      "type": "event"
    },
    {
      "anonymous": false,
      "inputs": [
        {
          "indexed": true,
          "internalType": "bytes32",
          "name": "id",
          "type": "bytes32"
        }
      ],
      "name": "RequestFulfilled",
      "type": "event"
    },
    {
      "anonymous": false,
      "inputs": [
        {
          "indexed": true,
          "internalType": "bytes32",
          "name": "id",
          "type": "bytes32"
        }
      ],
      "name": "RequestSent",
      "type": "event"
    },
    {
      "inputs": [],
      "name": "acceptOwnership",
      "outputs": [],
      "stateMutability": "nonpayable",
      "type": "function"
    },
    {
      "inputs": [
        {
          "internalType": "address",
          "name": "_reviewedAddress",
          "type": "address"
        }
      ],
      "name": "getRecentReviews",
      "outputs": [
        {
          "components": [
            {
              "internalType": "address",
              "name": "reviewer",
              "type": "address"
            },
            {
              "internalType": "bool",
              "name": "happy",
              "type": "bool"
            },
            {
              "internalType": "string",
              "name": "review",
              "type": "string"
            }
          ],
          "internalType": "struct SafeCity.Review[]",
          "name": "",
          "type": "tuple[]"
        }
      ],
      "stateMutability": "view",
      "type": "function"
    },
    {
      "inputs": [
        {
          "internalType": "address",
          "name": "_reviewedAddress",
          "type": "address"
        }
      ],
      "name": "getReviewCount",
      "outputs": [
        {
          "internalType": "uint256",
          "name": "",
          "type": "uint256"
        },
        {
          "internalType": "uint256",
          "name": "",
          "type": "uint256"
        }
      ],
      "stateMutability": "view",
      "type": "function"
    },
    {
      "inputs": [
        {
          "internalType": "bytes32",
          "name": "requestId",
          "type": "bytes32"
        },
        {
          "internalType": "bytes",
          "name": "response",
          "type": "bytes"
        },
        {
          "internalType": "bytes",
          "name": "err",
          "type": "bytes"
        }
      ],
      "name": "handleOracleFulfillment",
      "outputs": [],
      "stateMutability": "nonpayable",
      "type": "function"
    },
    {
      "inputs": [],
      "name": "owner",
      "outputs": [
        {
          "internalType": "address",
          "name": "",
          "type": "address"
        }
      ],
      "stateMutability": "view",
      "type": "function"
    },
    {
      "inputs": [
        {
          "internalType": "address",
          "name": "_reviewedAddress",
          "type": "address"
        },
        {
          "internalType": "bool",
          "name": "happy",
          "type": "bool"
        },
        {
          "internalType": "string",
          "name": "review",
          "type": "string"
        }
      ],
      "name": "reportHappiness",
      "outputs": [],
      "stateMutability": "nonpayable",
      "type": "function"
    },
    {
      "inputs": [
        {
          "internalType": "address",
          "name": "to",
          "type": "address"
        }
      ],
      "name": "transferOwnership",
      "outputs": [],
      "stateMutability": "nonpayable",
      "type": "function"
    }
  ],
  "bytecode": "0x61034060405261027760a0818152906200200d60c0396002906200002490826200027f565b506003805463ffffffff1916620493e01790553480156200004457600080fd5b50604051620022843803806200228483398101604081905262000067916200034b565b6001600160a01b0383166080523380600081620000cb5760405162461bcd60e51b815260206004820152601860248201527f43616e6e6f7420736574206f776e657220746f207a65726f000000000000000060448201526064015b60405180910390fd5b600080546001600160a01b0319166001600160a01b0384811691909117909155811615620000fe57620000fe816200012d565b505050600491909155600580546001600160401b0319166001600160401b0390921691909117905550620003a9565b336001600160a01b03821603620001875760405162461bcd60e51b815260206004820152601760248201527f43616e6e6f74207472616e7366657220746f2073656c660000000000000000006044820152606401620000c2565b600180546001600160a01b0319166001600160a01b0383811691821790925560008054604051929316917fed8889f560326eb138920d842192f0eb3dd22b4f139c87a2c57538e05bae12789190a350565b634e487b7160e01b600052604160045260246000fd5b600181811c908216806200020357607f821691505b6020821081036200022457634e487b7160e01b600052602260045260246000fd5b50919050565b601f8211156200027a576000816000526020600020601f850160051c81016020861015620002555750805b601f850160051c820191505b81811015620002765782815560010162000261565b5050505b505050565b81516001600160401b038111156200029b576200029b620001d8565b620002b381620002ac8454620001ee565b846200022a565b602080601f831160018114620002eb5760008415620002d25750858301515b600019600386901b1c1916600185901b17855562000276565b600085815260208120601f198616915b828110156200031c57888601518255948401946001909101908401620002fb565b50858210156200033b5787850151600019600388901b60f8161c191681555b5050505050600190811b01905550565b6000806000606084860312156200036157600080fd5b83516001600160a01b03811681146200037957600080fd5b6020850151604086015191945092506001600160401b03811681146200039e57600080fd5b809150509250925092565b608051611c41620003cc600039600081816102890152610d4b0152611c416000f3fe608060405234801561001057600080fd5b506004361061007d5760003560e01c806379ba50971161005b57806379ba5097146101065780638da5cb5b1461010e578063c2fae9c714610129578063f2fde38b1461013c57600080fd5b80630b36a40e146100825780630ca76175146100ab5780636ec78fc6146100c0575b600080fd5b610095610090366004611566565b61014f565b6040516100a291906115c7565b60405180910390f35b6100be6100b93660046116fe565b61027e565b005b6100f16100ce366004611566565b6001600160a01b0316600090815260076020526040902080546001909101549091565b604080519283526020830191909152016100a2565b6100be610302565b6000546040516001600160a01b0390911681526020016100a2565b6100be61013736600461176a565b6103b1565b6100be61014a366004611566565b610609565b6001600160a01b0381166000908152600660209081526040808320805482518185028101850190935280835260609492939192909184015b82821015610273576000848152602090819020604080516060810182526002860290920180546001600160a01b0381168452600160a01b900460ff16151593830193909352600183018054929392918401916101e2906117d8565b80601f016020809104026020016040519081016040528092919081815260200182805461020e906117d8565b801561025b5780601f106102305761010080835404028352916020019161025b565b820191906000526020600020905b81548152906001019060200180831161023e57829003601f168201915b50505050508152505081526020019060010190610187565b505050509050919050565b336001600160a01b037f000000000000000000000000000000000000000000000000000000000000000016146102c75760405163c6829f8360e01b815260040160405180910390fd5b6102d283838361061d565b60405183907f85e1543bf2f84fe80c6badbce3648c8539ad1df4d2b3d822938ca0538be727e690600090a2505050565b6001546001600160a01b0316331461035a5760405162461bcd60e51b815260206004820152601660248201527526bab9ba10313290383937b837b9b2b21037bbb732b960511b60448201526064015b60405180910390fd5b60008054336001600160a01b0319808316821784556001805490911690556040516001600160a01b0390921692909183917f8be0079c531659141344cd1fd0a4f28419497f9722a3daafe3b4186f6b6457e091a350565b6103f26040805160e0810190915280600081526020016000815260200160008152602001606081526020016060815260200160608152602001606081525090565b61048f60028054610402906117d8565b80601f016020809104026020016040519081016040528092919081815260200182805461042e906117d8565b801561047b5780601f106104505761010080835404028352916020019161047b565b820191906000526020600020905b81548152906001019060200180831161045e57829003601f168201915b50505050508261087190919063ffffffff16565b60408051600380825260808201909252600091816020015b60608152602001906001900390816104a75790505090506104c785610882565b816000815181106104da576104da611812565b60200260200101819052506104ee33610882565b8160018151811061050157610501611812565b6020026020010181905250610515436109c2565b8160028151811061052857610528611812565b602090810291909101015261053d8282610a54565b600061056e61054b84610a7e565b6005546003546004546001600160401b039092169163ffffffff90911690610d46565b604080516080810182523381526001600160a01b0389811660208084019182528a1515848601908152606085018b81526000888152600890935295909120845181549085166001600160a01b0319909116178155915160018301805492511515600160a01b026001600160a81b031990931691909416171790915591519293509160028201906105fe9082611878565b505050505050505050565b610611610e18565b61061a81610e6d565b50565b60008381526008602052604090206002018054610639906117d8565b905060000361065e5760405163d068bf5b60e01b815260048101849052602401610351565b600083815260086020526040812080546001820154600290920180546001600160a01b039283169492841693600160a01b900460ff169291906106a0906117d8565b80601f01602080910402602001604051908101604052809291908181526020018280546106cc906117d8565b80156107195780601f106106ee57610100808354040283529160200191610719565b820191906000526020600020905b8154815290600101906020018083116106fc57829003601f168201915b50505050509050858060200190518101906107349190611937565b60010361082957604080516060810182526001600160a01b0380871682528415156020808401918252838501868152888416600090815260068352958620805460018181018355918852929096208551600290930201805493511515600160a01b026001600160a81b031990941692909416919091179190911782555191928392908201906107c39082611878565b50505082156107fa576001600160a01b03841660009081526007602052604081208054916107f083611966565b9190505550610827565b6001600160a01b038416600090815260076020526040812060010180549161082183611966565b91905055505b505b7f8934b927e7ab772818ad8a389cf72f8f692feb7f8b638598b33ae9664aa5e800838584848960405161086095949392919061197f565b60405180910390a150505050505050565b61087e8260008084610f16565b5050565b60408051602880825260608281019093526000919060208201818036833701905050905060005b60148110156109bb5760006108bf8260136119d1565b6108ca9060086119e4565b6108d5906002611adf565b6108e8906001600160a01b038716611b01565b60f81b9050600060108260f81c6108ff9190611b15565b60f81b905060008160f81c60106109169190611b37565b8360f81c6109249190611b53565b60f81b905061093282610f94565b8561093e8660026119e4565b8151811061094e5761094e611812565b60200101906001600160f81b031916908160001a90535061096e81610f94565b8561097a8660026119e4565b610985906001611b6c565b8151811061099557610995611812565b60200101906001600160f81b031916908160001a90535050600190920191506108a99050565b5092915050565b606060006109cf83610fcf565b60010190506000816001600160401b038111156109ee576109ee611653565b6040519080825280601f01601f191660200182016040528015610a18576020820181803683370190505b5090508181016020015b600019016f181899199a1a9b1b9c1cb0b131b232b360811b600a86061a8153600a8504945084610a2257509392505050565b8051600003610a765760405163fe936cb760e01b815260040160405180910390fd5b60a090910152565b60606000610a8d6101006110a8565b9050610ac66040518060400160405280600c81526020016b31b7b232a637b1b0ba34b7b760a11b815250826110c990919063ffffffff16565b8251610ae4906002811115610add57610add611b7f565b82906110e7565b6040805180820190915260088152676c616e677561676560c01b6020820152610b0e9082906110c9565b6040830151610b25908015610add57610add611b7f565b604080518082019091526006815265736f7572636560d01b6020820152610b4d9082906110c9565b6060830151610b5d9082906110c9565b60a08301515115610be9576040805180820190915260048152636172677360e01b6020820152610b8e9082906110c9565b610b9781611120565b60005b8360a0015151811015610bdf57610bd78460a001518281518110610bc057610bc0611812565b6020026020010151836110c990919063ffffffff16565b600101610b9a565b50610be981611144565b60808301515115610cad57600083602001516002811115610c0c57610c0c611b7f565b03610c2a5760405163a80d31f760e01b815260040160405180910390fd5b60408051808201909152600f81526e39b2b1b932ba39a637b1b0ba34b7b760891b6020820152610c5b9082906110c9565b610c7483602001516002811115610add57610add611b7f565b6040805180820190915260078152667365637265747360c81b6020820152610c9d9082906110c9565b6080830151610cad908290611162565b60c08301515115610d3e5760408051808201909152600981526862797465734172677360b81b6020820152610ce39082906110c9565b610cec81611120565b60005b8360c0015151811015610d3457610d2c8460c001518281518110610d1557610d15611812565b60200260200101518361116290919063ffffffff16565b600101610cef565b50610d3e81611144565b515192915050565b6000807f00000000000000000000000000000000000000000000000000000000000000006001600160a01b031663461d27628688600188886040518663ffffffff1660e01b8152600401610d9e959493929190611b95565b6020604051808303816000875af1158015610dbd573d6000803e3d6000fd5b505050506040513d601f19601f82011682018060405250810190610de19190611937565b60405190915081907f1131472297a800fee664d1d89cfa8f7676ff07189ecc53f80bbb5f4969099db890600090a295945050505050565b6000546001600160a01b03163314610e6b5760405162461bcd60e51b815260206004820152601660248201527527b7363c9031b0b63630b1363290313c9037bbb732b960511b6044820152606401610351565b565b336001600160a01b03821603610ec55760405162461bcd60e51b815260206004820152601760248201527f43616e6e6f74207472616e7366657220746f2073656c660000000000000000006044820152606401610351565b600180546001600160a01b0319166001600160a01b0383811691821790925560008054604051929316917fed8889f560326eb138920d842192f0eb3dd22b4f139c87a2c57538e05bae12789190a350565b8051600003610f38576040516322ce3edd60e01b815260040160405180910390fd5b83836002811115610f4b57610f4b611b7f565b90816002811115610f5e57610f5e611b7f565b90525060408401828015610f7457610f74611b7f565b90818015610f8457610f84611b7f565b9052506060909301929092525050565b6000600a60f883901c1015610fbb57610fb260f883901c6030611bde565b60f81b92915050565b610fb260f883901c6057611bde565b919050565b60008072184f03e93ff9f4daa797ed6e38ed64bf6a1f0160401b831061100e5772184f03e93ff9f4daa797ed6e38ed64bf6a1f0160401b830492506040015b6d04ee2d6d415b85acef8100000000831061103a576d04ee2d6d415b85acef8100000000830492506020015b662386f26fc10000831061105857662386f26fc10000830492506010015b6305f5e1008310611070576305f5e100830492506008015b612710831061108457612710830492506004015b60648310611096576064830492506002015b600a83106110a2576001015b92915050565b6110b061151a565b80516110bc908361116f565b5060006020820152919050565b6110d682600383516111e6565b81516110e29082611305565b505050565b81516110f49060c261132d565b5061087e828260405160200161110c91815260200190565b604051602081830303815290604052611162565b61112b816004611396565b60018160200181815161113e9190611b6c565b90525050565b61114f816007611396565b60018160200181815161113e91906119d1565b6110d682600283516111e6565b60408051808201909152606081526000602082015261118f602083611bf7565b156111b75761119f602083611bf7565b6111aa9060206119d1565b6111b49083611b6c565b91505b6020808401839052604051808552600081529081840101818110156111db57600080fd5b604052509192915050565b6017816001600160401b03161161121257825161120c9060e0600585901b16831761132d565b50505050565b60ff816001600160401b03161161125257825161123a906018611fe0600586901b161761132d565b50825161120c906001600160401b03831660016113ad565b61ffff816001600160401b03161161129357825161127b906019611fe0600586901b161761132d565b50825161120c906001600160401b03831660026113ad565b63ffffffff816001600160401b0316116112d65782516112be90601a611fe0600586901b161761132d565b50825161120c906001600160401b03831660046113ad565b82516112ed90601b611fe0600586901b161761132d565b50825161120c906001600160401b03831660086113ad565b60408051808201909152606081526000602082015261132683838451611432565b9392505050565b6040805180820190915260608152600060208201528251516000611352826001611b6c565b905084602001518210611373576113738561136e8360026119e4565b611503565b845160208382010185815350805182111561138c578181525b5093949350505050565b81516110e290601f611fe0600585901b161761132d565b60408051808201909152606081526000602082015283515160006113d18285611b6c565b905085602001518111156113ee576113ee8661136e8360026119e4565b600060016113fe86610100611adf565b61140891906119d1565b90508651828101878319825116178152508051831115611426578281525b50959695505050505050565b604080518082019091526060815260006020820152825182111561145557600080fd5b83515160006114648483611b6c565b90508560200151811115611481576114818661136e8360026119e4565b85518051838201602001916000918085111561149b578482525b505050602086015b602086106114db57805182526114ba602083611b6c565b91506114c7602082611b6c565b90506114d46020876119d1565b95506114a3565b51815160001960208890036101000a0190811690199190911617905250849150509392505050565b815161150f838361116f565b5061120c8382611305565b6040518060400160405280611542604051806040016040528060608152602001600081525090565b8152602001600081525090565b80356001600160a01b0381168114610fca57600080fd5b60006020828403121561157857600080fd5b6113268261154f565b6000815180845260005b818110156115a75760208185018101518683018201520161158b565b506000602082860101526020601f19601f83011685010191505092915050565b600060208083018184528085518083526040925060408601915060408160051b87010184880160005b8381101561164557888303603f19018552815180516001600160a01b0316845287810151151588850152860151606087850181905261163181860183611581565b9689019694505050908601906001016115f0565b509098975050505050505050565b634e487b7160e01b600052604160045260246000fd5b60006001600160401b038084111561168357611683611653565b604051601f8501601f19908116603f011681019082821181831017156116ab576116ab611653565b816040528093508581528686860111156116c457600080fd5b858560208301376000602087830101525050509392505050565b600082601f8301126116ef57600080fd5b61132683833560208501611669565b60008060006060848603121561171357600080fd5b8335925060208401356001600160401b038082111561173157600080fd5b61173d878388016116de565b9350604086013591508082111561175357600080fd5b50611760868287016116de565b9150509250925092565b60008060006060848603121561177f57600080fd5b6117888461154f565b92506020840135801515811461179d57600080fd5b915060408401356001600160401b038111156117b857600080fd5b8401601f810186136117c957600080fd5b61176086823560208401611669565b600181811c908216806117ec57607f821691505b60208210810361180c57634e487b7160e01b600052602260045260246000fd5b50919050565b634e487b7160e01b600052603260045260246000fd5b601f8211156110e2576000816000526020600020601f850160051c810160208610156118515750805b601f850160051c820191505b818110156118705782815560010161185d565b505050505050565b81516001600160401b0381111561189157611891611653565b6118a58161189f84546117d8565b84611828565b602080601f8311600181146118da57600084156118c25750858301515b600019600386901b1c1916600185901b178555611870565b600085815260208120601f198616915b82811015611909578886015182559484019460019091019084016118ea565b50858210156119275787850151600019600388901b60f8161c191681555b5050505050600190811b01905550565b60006020828403121561194957600080fd5b5051919050565b634e487b7160e01b600052601160045260246000fd5b60006001820161197857611978611950565b5060010190565b6001600160a01b03868116825285166020820152831515604082015260a0606082018190526000906119b390830185611581565b82810360808401526119c58185611581565b98975050505050505050565b818103818111156110a2576110a2611950565b80820281158282048414176110a2576110a2611950565b600181815b80851115611a36578160001904821115611a1c57611a1c611950565b80851615611a2957918102915b93841c9390800290611a00565b509250929050565b600082611a4d575060016110a2565b81611a5a575060006110a2565b8160018114611a705760028114611a7a57611a96565b60019150506110a2565b60ff841115611a8b57611a8b611950565b50506001821b6110a2565b5060208310610133831016604e8410600b8410161715611ab9575081810a6110a2565b611ac383836119fb565b8060001904821115611ad757611ad7611950565b029392505050565b60006113268383611a3e565b634e487b7160e01b600052601260045260246000fd5b600082611b1057611b10611aeb565b500490565b600060ff831680611b2857611b28611aeb565b8060ff84160491505092915050565b60ff81811683821602908116908181146109bb576109bb611950565b60ff82811682821603908111156110a2576110a2611950565b808201808211156110a2576110a2611950565b634e487b7160e01b600052602160045260246000fd5b6001600160401b038616815260a060208201526000611bb760a0830187611581565b61ffff9590951660408301525063ffffffff92909216606083015260809091015292915050565b60ff81811683821601908111156110a2576110a2611950565b600082611c0657611c06611aeb565b50069056fea2646970667358221220e2e9b50cb48a80bf5759e7be139a82353792c4c677a2d205149616b85feefd4e64736f6c63430008180033636f6e737420636f6e747261637441646472657373203d20617267735b305d3b636f6e7374207573657241646472657373203d20617267735b315d3b636f6e73742063757272656e74426c6f636b203d20617267735b325d3b636f6e7374207374617274426c6f636b203d2063757272656e74426c6f636b202d20313830303b636f6e73742075726c203d206068747470733a2f2f6574682d7365706f6c69612e626c6f636b73636f75742e636f6d2f6170693f6d6f64756c653d6163636f756e7426616374696f6e3d74786c69737426616464726573733d247b636f6e7472616374416464726573737d267374617274626c6f636b3d247b7374617274426c6f636b7d26656e64626c6f636b3d247b63757272656e74426c6f636b7d26736f72743d64657363266f66667365743d31303026706167653d302666696c74657242793d746f60636f6e73742061706952657175657374203d2046756e6374696f6e732e6d616b654874747052657175657374287b75726c3a2075726c7d293b636f6e737420617069526573706f6e7365203d20617761697420617069526571756573743b69662028617069526573706f6e73652e6572726f7229207b7468726f77204572726f72282752657175657374206661696c656427293b7d636f6e73742064617461203d20617069526573706f6e73652e646174613b636f6e737420726573756c74203d20646174612e726573756c742e736f6d6528656e74697479203d3e20656e746974792e66726f6d203d3d3d207573657241646472657373293b72657475726e2046756e6374696f6e732e656e636f646555696e7432353628726573756c74203d3d2074727565203f2031203a2030293b",
  "linkReferences": {},
  "deployedLinkReferences": {}
}