{
  "_format": "hh-sol-artifact-1",
  "contractName": "SafeCity",
  "sourceName": "contracts/SafeCity.sol",
  "abi": [
    {
      "inputs": [
        {
          "internalType": "address",
          "name": "router",
          "type": "address"
        },
        {
          "internalType": "bytes32",
          "name": "_donID",
          "type": "bytes32"
        },
        {
          "internalType": "uint64",
          "name": "_subscriptionID",
          "type": "uint64"
        }
      ],
      "stateMutability": "nonpayable",
      "type": "constructor"
    },
    {
      "inputs": [],
      "name": "EmptyArgs",
      "type": "error"
    },
    {
      "inputs": [],
      "name": "EmptySource",
      "type": "error"
    },
    {
      "inputs": [],
      "name": "NoInlineSecrets",
      "type": "error"
    },
    {
      "inputs": [],
      "name": "OnlyRouterCanFulfill",
      "type": "error"
    },
    {
      "inputs": [
        {
          "internalType": "bytes32",
          "name": "requestId",
          "type": "bytes32"
        }
      ],
      "name": "UnexpectedRequestID",
      "type": "error"
    },
    {
      "anonymous": false,
      "inputs": [
        {
          "indexed": false,
          "internalType": "address",
          "name": "reviewedAddress",
          "type": "address"
        },
        {
          "indexed": false,
          "internalType": "address",
          "name": "reviewer",
          "type": "address"
        },
        {
          "indexed": false,
          "internalType": "bool",
          "name": "happy",
          "type": "bool"
        },
        {
          "indexed": false,
          "internalType": "string",
          "name": "review",
          "type": "string"
        },
        {
          "indexed": false,
          "internalType": "bytes",
          "name": "error",
          "type": "bytes"
        }
      ],
      "name": "NewReview",
      "type": "event"
    },
    {
      "anonymous": false,
      "inputs": [
        {
          "indexed": true,
          "internalType": "address",
          "name": "from",
          "type": "address"
        },
        {
          "indexed": true,
          "internalType": "address",
          "name": "to",
          "type": "address"
        }
      ],
      "name": "OwnershipTransferRequested",
      "type": "event"
    },
    {
      "anonymous": false,
      "inputs": [
        {
          "indexed": true,
          "internalType": "address",
          "name": "from",
          "type": "address"
        },
        {
          "indexed": true,
          "internalType": "address",
          "name": "to",
          "type": "address"
        }
      ],
      "name": "OwnershipTransferred",
      "type": "event"
    },
    {
      "anonymous": false,
      "inputs": [
        {
          "indexed": true,
          "internalType": "bytes32",
          "name": "id",
          "type": "bytes32"
        }
      ],
      "name": "RequestFulfilled",
      "type": "event"
    },
    {
      "anonymous": false,
      "inputs": [
        {
          "indexed": true,
          "internalType": "bytes32",
          "name": "id",
          "type": "bytes32"
        }
      ],
      "name": "RequestSent",
      "type": "event"
    },
    {
      "inputs": [],
      "name": "acceptOwnership",
      "outputs": [],
      "stateMutability": "nonpayable",
      "type": "function"
    },
    {
      "inputs": [
        {
          "internalType": "address",
          "name": "_reviewedAddress",
          "type": "address"
        }
      ],
      "name": "getRecentReviews",
      "outputs": [
        {
          "components": [
            {
              "internalType": "address",
              "name": "reviewer",
              "type": "address"
            },
            {
              "internalType": "bool",
              "name": "happy",
              "type": "bool"
            },
            {
              "internalType": "string",
              "name": "review",
              "type": "string"
            }
          ],
          "internalType": "struct SafeCity.Review[]",
          "name": "",
          "type": "tuple[]"
        }
      ],
      "stateMutability": "view",
      "type": "function"
    },
    {
      "inputs": [
        {
          "internalType": "bytes32",
          "name": "requestId",
          "type": "bytes32"
        },
        {
          "internalType": "bytes",
          "name": "response",
          "type": "bytes"
        },
        {
          "internalType": "bytes",
          "name": "err",
          "type": "bytes"
        }
      ],
      "name": "handleOracleFulfillment",
      "outputs": [],
      "stateMutability": "nonpayable",
      "type": "function"
    },
    {
      "inputs": [],
      "name": "owner",
      "outputs": [
        {
          "internalType": "address",
          "name": "",
          "type": "address"
        }
      ],
      "stateMutability": "view",
      "type": "function"
    },
    {
      "inputs": [
        {
          "internalType": "address",
          "name": "_reviewedAddress",
          "type": "address"
        },
        {
          "internalType": "bool",
          "name": "happy",
          "type": "bool"
        },
        {
          "internalType": "string",
          "name": "review",
          "type": "string"
        }
      ],
      "name": "reportHappiness",
      "outputs": [],
      "stateMutability": "nonpayable",
      "type": "function"
    },
    {
      "inputs": [
        {
          "internalType": "address",
          "name": "to",
          "type": "address"
        }
      ],
      "name": "transferOwnership",
      "outputs": [],
      "stateMutability": "nonpayable",
      "type": "function"
    }
  ],
  "bytecode": "0x61034060405261027160a08181529062001f3260c0396002906200002490826200027f565b506003805463ffffffff1916620493e01790553480156200004457600080fd5b50604051620021a3380380620021a383398101604081905262000067916200034b565b6001600160a01b0383166080523380600081620000cb5760405162461bcd60e51b815260206004820152601860248201527f43616e6e6f7420736574206f776e657220746f207a65726f000000000000000060448201526064015b60405180910390fd5b600080546001600160a01b0319166001600160a01b0384811691909117909155811615620000fe57620000fe816200012d565b505050600491909155600580546001600160401b0319166001600160401b0390921691909117905550620003a9565b336001600160a01b03821603620001875760405162461bcd60e51b815260206004820152601760248201527f43616e6e6f74207472616e7366657220746f2073656c660000000000000000006044820152606401620000c2565b600180546001600160a01b0319166001600160a01b0383811691821790925560008054604051929316917fed8889f560326eb138920d842192f0eb3dd22b4f139c87a2c57538e05bae12789190a350565b634e487b7160e01b600052604160045260246000fd5b600181811c908216806200020357607f821691505b6020821081036200022457634e487b7160e01b600052602260045260246000fd5b50919050565b601f8211156200027a576000816000526020600020601f850160051c81016020861015620002555750805b601f850160051c820191505b81811015620002765782815560010162000261565b5050505b505050565b81516001600160401b038111156200029b576200029b620001d8565b620002b381620002ac8454620001ee565b846200022a565b602080601f831160018114620002eb5760008415620002d25750858301515b600019600386901b1c1916600185901b17855562000276565b600085815260208120601f198616915b828110156200031c57888601518255948401946001909101908401620002fb565b50858210156200033b5787850151600019600388901b60f8161c191681555b5050505050600190811b01905550565b6000806000606084860312156200036157600080fd5b83516001600160a01b03811681146200037957600080fd5b6020850151604086015191945092506001600160401b03811681146200039e57600080fd5b809150509250925092565b608051611b66620003cc600039600081816102280152610c890152611b666000f3fe608060405234801561001057600080fd5b50600436106100625760003560e01c80630b36a40e146100675780630ca761751461009057806379ba5097146100a55780638da5cb5b146100ad578063c2fae9c7146100c8578063f2fde38b146100db575b600080fd5b61007a6100753660046114a4565b6100ee565b6040516100879190611505565b60405180910390f35b6100a361009e36600461163c565b61021d565b005b6100a36102a1565b6000546040516001600160a01b039091168152602001610087565b6100a36100d63660046116a8565b610350565b6100a36100e93660046114a4565b6105a8565b6001600160a01b0381166000908152600660209081526040808320805482518185028101850190935280835260609492939192909184015b82821015610212576000848152602090819020604080516060810182526002860290920180546001600160a01b0381168452600160a01b900460ff161515938301939093526001830180549293929184019161018190611716565b80601f01602080910402602001604051908101604052809291908181526020018280546101ad90611716565b80156101fa5780601f106101cf576101008083540402835291602001916101fa565b820191906000526020600020905b8154815290600101906020018083116101dd57829003601f168201915b50505050508152505081526020019060010190610126565b505050509050919050565b336001600160a01b037f000000000000000000000000000000000000000000000000000000000000000016146102665760405163c6829f8360e01b815260040160405180910390fd5b6102718383836105bc565b60405183907f85e1543bf2f84fe80c6badbce3648c8539ad1df4d2b3d822938ca0538be727e690600090a2505050565b6001546001600160a01b031633146102f95760405162461bcd60e51b815260206004820152601660248201527526bab9ba10313290383937b837b9b2b21037bbb732b960511b60448201526064015b60405180910390fd5b60008054336001600160a01b0319808316821784556001805490911690556040516001600160a01b0390921692909183917f8be0079c531659141344cd1fd0a4f28419497f9722a3daafe3b4186f6b6457e091a350565b6103916040805160e0810190915280600081526020016000815260200160008152602001606081526020016060815260200160608152602001606081525090565b61042e600280546103a190611716565b80601f01602080910402602001604051908101604052809291908181526020018280546103cd90611716565b801561041a5780601f106103ef5761010080835404028352916020019161041a565b820191906000526020600020905b8154815290600101906020018083116103fd57829003601f168201915b5050505050826107af90919063ffffffff16565b60408051600380825260808201909252600091816020015b6060815260200190600190039081610446579050509050610466856107c0565b8160008151811061047957610479611750565b602002602001018190525061048d336107c0565b816001815181106104a0576104a0611750565b60200260200101819052506104b443610900565b816002815181106104c7576104c7611750565b60209081029190910101526104dc8282610992565b600061050d6104ea846109bc565b6005546003546004546001600160401b039092169163ffffffff90911690610c84565b604080516080810182523381526001600160a01b0389811660208084019182528a1515848601908152606085018b81526000888152600790935295909120845181549085166001600160a01b0319909116178155915160018301805492511515600160a01b026001600160a81b0319909316919094161717909155915192935091600282019061059d90826117b6565b505050505050505050565b6105b0610d56565b6105b981610dab565b50565b600083815260076020526040902060020180546105d890611716565b90506000036105fd5760405163d068bf5b60e01b8152600481018490526024016102f0565b600083815260076020526040812080546001820154600290920180546001600160a01b039283169492841693600160a01b900460ff1692919061063f90611716565b80601f016020809104026020016040519081016040528092919081815260200182805461066b90611716565b80156106b85780601f1061068d576101008083540402835291602001916106b8565b820191906000526020600020905b81548152906001019060200180831161069b57829003601f168201915b50505050509050858060200190518101906106d39190611875565b60010361076757604080516060810182526001600160a01b0380871682528415156020808401918252838501868152888416600090815260068352958620805460018181018355918852929096208551600290930201805493511515600160a01b026001600160a81b0319909416929094169190911791909117825551919283929082019061076290826117b6565b505050505b7f8934b927e7ab772818ad8a389cf72f8f692feb7f8b638598b33ae9664aa5e800838584848960405161079e95949392919061188e565b60405180910390a150505050505050565b6107bc8260008084610e54565b5050565b60408051602880825260608281019093526000919060208201818036833701905050905060005b60148110156108f95760006107fd8260136118f6565b610808906008611909565b610813906002611a04565b610826906001600160a01b038716611a26565b60f81b9050600060108260f81c61083d9190611a3a565b60f81b905060008160f81c60106108549190611a5c565b8360f81c6108629190611a78565b60f81b905061087082610ed2565b8561087c866002611909565b8151811061088c5761088c611750565b60200101906001600160f81b031916908160001a9053506108ac81610ed2565b856108b8866002611909565b6108c3906001611a91565b815181106108d3576108d3611750565b60200101906001600160f81b031916908160001a90535050600190920191506107e79050565b5092915050565b6060600061090d83610f0d565b60010190506000816001600160401b0381111561092c5761092c611591565b6040519080825280601f01601f191660200182016040528015610956576020820181803683370190505b5090508181016020015b600019016f181899199a1a9b1b9c1cb0b131b232b360811b600a86061a8153600a850494508461096057509392505050565b80516000036109b45760405163fe936cb760e01b815260040160405180910390fd5b60a090910152565b606060006109cb610100610fe6565b9050610a046040518060400160405280600c81526020016b31b7b232a637b1b0ba34b7b760a11b8152508261100790919063ffffffff16565b8251610a22906002811115610a1b57610a1b611aa4565b8290611025565b6040805180820190915260088152676c616e677561676560c01b6020820152610a4c908290611007565b6040830151610a63908015610a1b57610a1b611aa4565b604080518082019091526006815265736f7572636560d01b6020820152610a8b908290611007565b6060830151610a9b908290611007565b60a08301515115610b27576040805180820190915260048152636172677360e01b6020820152610acc908290611007565b610ad58161105e565b60005b8360a0015151811015610b1d57610b158460a001518281518110610afe57610afe611750565b60200260200101518361100790919063ffffffff16565b600101610ad8565b50610b2781611082565b60808301515115610beb57600083602001516002811115610b4a57610b4a611aa4565b03610b685760405163a80d31f760e01b815260040160405180910390fd5b60408051808201909152600f81526e39b2b1b932ba39a637b1b0ba34b7b760891b6020820152610b99908290611007565b610bb283602001516002811115610a1b57610a1b611aa4565b6040805180820190915260078152667365637265747360c81b6020820152610bdb908290611007565b6080830151610beb9082906110a0565b60c08301515115610c7c5760408051808201909152600981526862797465734172677360b81b6020820152610c21908290611007565b610c2a8161105e565b60005b8360c0015151811015610c7257610c6a8460c001518281518110610c5357610c53611750565b6020026020010151836110a090919063ffffffff16565b600101610c2d565b50610c7c81611082565b515192915050565b6000807f00000000000000000000000000000000000000000000000000000000000000006001600160a01b031663461d27628688600188886040518663ffffffff1660e01b8152600401610cdc959493929190611aba565b6020604051808303816000875af1158015610cfb573d6000803e3d6000fd5b505050506040513d601f19601f82011682018060405250810190610d1f9190611875565b60405190915081907f1131472297a800fee664d1d89cfa8f7676ff07189ecc53f80bbb5f4969099db890600090a295945050505050565b6000546001600160a01b03163314610da95760405162461bcd60e51b815260206004820152601660248201527527b7363c9031b0b63630b1363290313c9037bbb732b960511b60448201526064016102f0565b565b336001600160a01b03821603610e035760405162461bcd60e51b815260206004820152601760248201527f43616e6e6f74207472616e7366657220746f2073656c6600000000000000000060448201526064016102f0565b600180546001600160a01b0319166001600160a01b0383811691821790925560008054604051929316917fed8889f560326eb138920d842192f0eb3dd22b4f139c87a2c57538e05bae12789190a350565b8051600003610e76576040516322ce3edd60e01b815260040160405180910390fd5b83836002811115610e8957610e89611aa4565b90816002811115610e9c57610e9c611aa4565b90525060408401828015610eb257610eb2611aa4565b90818015610ec257610ec2611aa4565b9052506060909301929092525050565b6000600a60f883901c1015610ef957610ef060f883901c6030611b03565b60f81b92915050565b610ef060f883901c6057611b03565b919050565b60008072184f03e93ff9f4daa797ed6e38ed64bf6a1f0160401b8310610f4c5772184f03e93ff9f4daa797ed6e38ed64bf6a1f0160401b830492506040015b6d04ee2d6d415b85acef81000000008310610f78576d04ee2d6d415b85acef8100000000830492506020015b662386f26fc100008310610f9657662386f26fc10000830492506010015b6305f5e1008310610fae576305f5e100830492506008015b6127108310610fc257612710830492506004015b60648310610fd4576064830492506002015b600a8310610fe0576001015b92915050565b610fee611458565b8051610ffa90836110ad565b5060006020820152919050565b6110148260038351611124565b81516110209082611243565b505050565b81516110329060c261126b565b506107bc828260405160200161104a91815260200190565b6040516020818303038152906040526110a0565b6110698160046112d4565b60018160200181815161107c9190611a91565b90525050565b61108d8160076112d4565b60018160200181815161107c91906118f6565b6110148260028351611124565b6040805180820190915260608152600060208201526110cd602083611b1c565b156110f5576110dd602083611b1c565b6110e89060206118f6565b6110f29083611a91565b91505b60208084018390526040518085526000815290818401018181101561111957600080fd5b604052509192915050565b6017816001600160401b03161161115057825161114a9060e0600585901b16831761126b565b50505050565b60ff816001600160401b031611611190578251611178906018611fe0600586901b161761126b565b50825161114a906001600160401b03831660016112eb565b61ffff816001600160401b0316116111d15782516111b9906019611fe0600586901b161761126b565b50825161114a906001600160401b03831660026112eb565b63ffffffff816001600160401b0316116112145782516111fc90601a611fe0600586901b161761126b565b50825161114a906001600160401b03831660046112eb565b825161122b90601b611fe0600586901b161761126b565b50825161114a906001600160401b03831660086112eb565b60408051808201909152606081526000602082015261126483838451611370565b9392505050565b6040805180820190915260608152600060208201528251516000611290826001611a91565b9050846020015182106112b1576112b1856112ac836002611909565b611441565b84516020838201018581535080518211156112ca578181525b5093949350505050565b815161102090601f611fe0600585901b161761126b565b604080518082019091526060815260006020820152835151600061130f8285611a91565b9050856020015181111561132c5761132c866112ac836002611909565b6000600161133c86610100611a04565b61134691906118f6565b90508651828101878319825116178152508051831115611364578281525b50959695505050505050565b604080518082019091526060815260006020820152825182111561139357600080fd5b83515160006113a28483611a91565b905085602001518111156113bf576113bf866112ac836002611909565b8551805183820160200191600091808511156113d9578482525b505050602086015b6020861061141957805182526113f8602083611a91565b9150611405602082611a91565b90506114126020876118f6565b95506113e1565b51815160001960208890036101000a0190811690199190911617905250849150509392505050565b815161144d83836110ad565b5061114a8382611243565b6040518060400160405280611480604051806040016040528060608152602001600081525090565b8152602001600081525090565b80356001600160a01b0381168114610f0857600080fd5b6000602082840312156114b657600080fd5b6112648261148d565b6000815180845260005b818110156114e5576020818501810151868301820152016114c9565b506000602082860101526020601f19601f83011685010191505092915050565b600060208083018184528085518083526040925060408601915060408160051b87010184880160005b8381101561158357888303603f19018552815180516001600160a01b0316845287810151151588850152860151606087850181905261156f818601836114bf565b96890196945050509086019060010161152e565b509098975050505050505050565b634e487b7160e01b600052604160045260246000fd5b60006001600160401b03808411156115c1576115c1611591565b604051601f8501601f19908116603f011681019082821181831017156115e9576115e9611591565b8160405280935085815286868601111561160257600080fd5b858560208301376000602087830101525050509392505050565b600082601f83011261162d57600080fd5b611264838335602085016115a7565b60008060006060848603121561165157600080fd5b8335925060208401356001600160401b038082111561166f57600080fd5b61167b8783880161161c565b9350604086013591508082111561169157600080fd5b5061169e8682870161161c565b9150509250925092565b6000806000606084860312156116bd57600080fd5b6116c68461148d565b9250602084013580151581146116db57600080fd5b915060408401356001600160401b038111156116f657600080fd5b8401601f8101861361170757600080fd5b61169e868235602084016115a7565b600181811c9082168061172a57607f821691505b60208210810361174a57634e487b7160e01b600052602260045260246000fd5b50919050565b634e487b7160e01b600052603260045260246000fd5b601f821115611020576000816000526020600020601f850160051c8101602086101561178f5750805b601f850160051c820191505b818110156117ae5782815560010161179b565b505050505050565b81516001600160401b038111156117cf576117cf611591565b6117e3816117dd8454611716565b84611766565b602080601f83116001811461181857600084156118005750858301515b600019600386901b1c1916600185901b1785556117ae565b600085815260208120601f198616915b8281101561184757888601518255948401946001909101908401611828565b50858210156118655787850151600019600388901b60f8161c191681555b5050505050600190811b01905550565b60006020828403121561188757600080fd5b5051919050565b6001600160a01b03868116825285166020820152831515604082015260a0606082018190526000906118c2908301856114bf565b82810360808401526118d481856114bf565b98975050505050505050565b634e487b7160e01b600052601160045260246000fd5b81810381811115610fe057610fe06118e0565b8082028115828204841417610fe057610fe06118e0565b600181815b8085111561195b578160001904821115611941576119416118e0565b8085161561194e57918102915b93841c9390800290611925565b509250929050565b60008261197257506001610fe0565b8161197f57506000610fe0565b8160018114611995576002811461199f576119bb565b6001915050610fe0565b60ff8411156119b0576119b06118e0565b50506001821b610fe0565b5060208310610133831016604e8410600b84101617156119de575081810a610fe0565b6119e88383611920565b80600019048211156119fc576119fc6118e0565b029392505050565b60006112648383611963565b634e487b7160e01b600052601260045260246000fd5b600082611a3557611a35611a10565b500490565b600060ff831680611a4d57611a4d611a10565b8060ff84160491505092915050565b60ff81811683821602908116908181146108f9576108f96118e0565b60ff8281168282160390811115610fe057610fe06118e0565b80820180821115610fe057610fe06118e0565b634e487b7160e01b600052602160045260246000fd5b6001600160401b038616815260a060208201526000611adc60a08301876114bf565b61ffff9590951660408301525063ffffffff92909216606083015260809091015292915050565b60ff8181168382160190811115610fe057610fe06118e0565b600082611b2b57611b2b611a10565b50069056fea2646970667358221220f784a6b0652d26645fddc128c9e8c50655e3b76b814ab2a3f42e28c5947592d364736f6c63430008180033636f6e737420636f6e747261637441646472657373203d20617267735b305d3b636f6e7374207573657241646472657373203d20617267735b315d3b636f6e73742063757272656e74426c6f636b203d20617267735b325d3b636f6e7374207374617274426c6f636b203d2063757272656e74426c6f636b202d20313830303b636f6e73742075726c203d206068747470733a2f2f6578706c6f7265722e6c696e65612e6275696c642f6170693f6d6f64756c653d6163636f756e7426616374696f6e3d74786c69737426616464726573733d247b636f6e7472616374416464726573737d267374617274626c6f636b3d247b7374617274426c6f636b7d26656e64626c6f636b3d247b63757272656e74426c6f636b7d26736f72743d64657363266f66667365743d31303026706167653d302666696c74657242793d746f60636f6e73742061706952657175657374203d2046756e6374696f6e732e6d616b654874747052657175657374287b75726c3a2075726c7d293b636f6e737420617069526573706f6e7365203d20617761697420617069526571756573743b69662028617069526573706f6e73652e6572726f7229207b7468726f77204572726f72282752657175657374206661696c656427293b7d636f6e73742064617461203d20617069526573706f6e73652e646174613b636f6e737420726573756c74203d20646174612e726573756c742e736f6d6528656e74697479203d3e20656e746974792e66726f6d203d3d3d207573657241646472657373293b72657475726e2046756e6374696f6e732e656e636f646555696e7432353628726573756c74203d3d2074727565203f2031203a2030293b",
  "linkReferences": {},
  "deployedLinkReferences": {}
}